:020000040000FA
:100000000C9462000C948A000C948A000C948A0070
:100010000C948A000C948A000C948A000C948A0038
:100020000C948A000C948A000C948A000C9441046D
:100030000C948A000C948A000C948A000C948A0018
:100040000C949F030C948A000C940F040C94E90305
:100050000C948A000C948A000C948A000C948A00F8
:100060000C948A000C948A000000000024002700F1
:100070002A0000000000250028002B0000000000DE
:1000800023002600290004040404040404040202DA
:100090000202020203030303030301020408102007
:1000A0004080010204081020010204081020000012
:1000B0000008000201000003040700000000000027
:1000C0000000420511241FBECFEFD8E0DEBFCDBF38
:1000D00011E0A0E0B1E0E6EEF2E102C005900D9281
:1000E000AC31B107D9F721E0ACE1B1E001C01D921C
:1000F000AB3EB207E1F710E0C2E6D0E004C02197C2
:10010000FE010E946B09C136D107C9F70E949F0505
:100110000C9471090C9400008F929F92AF92BF9241
:10012000FF920F931F93CF93DF93F090E8012BE0A2
:100130002F1508F44CC02091EA0108E512E0021BDB
:10014000110927FD1395000F111F000F111F20919A
:10015000E901C8E8D0E0C21BD10927FDD395CC0F37
:10016000DD1FCC0FDD1F4E010D2E000CAA08BB08B1
:100170009801012E000C440B550B281939094A0926
:100180005B09DC010E94EE0724EB30E040E050E028
:100190000E94C407820E931EA41EB51E8C169D06D7
:1001A0002CF0E801801691060CF4E4012297CC0FA4
:1001B000DD1F2FB7F8948F2D90E0FC01EE0FFF1F8D
:1001C000E80FF91FED53FE4FD283C1832FBFDF919C
:1001D000CF911F910F91FF90BF90AF909F908F9004
:1001E0000895833081F028F4813099F08230A9F0AD
:1001F00008958730A9F08830C9F08430B1F4809137
:1002000080008F7D03C0809180008F778093800075
:10021000089584B58F7784BD089584B58F7DFBCF15
:100220008091B0008F778093B00008958091B000E6
:100230008F7DF9CFCF93DF93282F30E0F901E2557E
:10024000FF4F8491F901E656FF4FD491F901EA5727
:10025000FF4FC491CC23A1F081110E94F100EC2F3B
:10026000F0E0EE0FFF1FE458FF4FA591B491EC9121
:10027000ED2381E090E009F480E0DF91CF910895D3
:1002800080E090E0FACF1F93CF93DF93282F30E0E8
:10029000F901E255FF4F8491F901E656FF4FD491E1
:1002A000F901EA57FF4FC491CC23A9F0162F811111
:1002B0000E94F100EC2FF0E0EE0FFF1FEE58FF4F11
:1002C000A591B4918FB7F894EC91111108C0D09515
:1002D000DE23DC938FBFDF91CF911F910895DE2B3A
:1002E000F8CFCF93DF9390E0FC01E656FF4F2491C7
:1002F0008A579F4FFC0184918823D1F090E0880FAA
:10030000991FFC01E859FF4FA591B491FC01EE58EB
:10031000FF4FC591D49161110EC09FB7F8948C9195
:10032000E22FE0958E238C932881E223E8839FBF00
:10033000DF91CF9108958FB7F894EC91E22BEC9375
:100340008FBFF6CF3FB7F89480912201909123019F
:10035000A0912401B091250126B5A89B05C02F3F8F
:1003600019F00196A11DB11D3FBFBA2FA92F982FDB
:100370008827BC01CD01620F711D811D911D42E0D6
:10038000660F771F881F991F4A95D1F708958F929E
:100390009F92AF92BF92CF92DF92EF92FF926B014A
:1003A0007C010E94A2014B015C01C114D104E10453
:1003B000F104B9F00E94A201681979098A099B0920
:1003C000683E73408105910580F321E0C21AD1088F
:1003D000E108F10888EE880E83E0981EA11CB11C8C
:1003E000E4CFFF90EF90DF90CF90BF90AF909F90C1
:1003F0008F900895AF92BF92CF92DF92EF92FF92CB
:100400000F931F93CF93DF936C017B018B01040F3C
:10041000151FEB015E01AE18BF08C017D10759F0D8
:100420006991D601ED91FC910190F081E02DC6011A
:100430000995892B79F7C501DF91CF911F910F9114
:10044000FF90EF90DF90CF90BF90AF900895FC01A8
:10045000538D448D252F30E0842F90E0821B930B29
:10046000541710F0CF96089501970895FC01918DCF
:10047000828D981761F0A28DAE0FBF2FB11D5D96D2
:100480008C91928D9F5F9F73928F90E008958FEF74
:100490009FEF0895FC01918D828D981731F0828D28
:1004A000E80FF11D858D90E008958FEF9FEF08957F
:1004B000FC01918D228D892F90E0805C9F4F821BE3
:1004C00091098F739927089586E291E00E9458025E
:1004D00021E0892B09F420E0822F089580E090E04C
:1004E000892B29F00E94640281110C940000089568
:1004F000FC01A48DA80FB92FB11DA35ABF4F2C9199
:10050000848D90E001968F739927848FA689B7898F
:100510002C93A089B1898C91837080648C93938D86
:10052000848D981306C00288F389E02D80818F7D29
:1005300080830895EF92FF920F931F93CF93DF93E1
:10054000EC0181E0888F9B8D8C8D98131AC0E8890F
:10055000F989808185FF15C09FB7F894EE89FF89DE
:100560006083E889F98980818370806480839FBF7C
:1005700081E090E0DF91CF911F910F91FF90EF907C
:100580000895F62E0B8D10E00F5F1F4F0F7311278C
:10059000E02E8C8D8E110CC00FB607FCFACFE889C7
:1005A000F989808185FFF5CFCE010E947802F1CFD5
:1005B000EB8DEC0FFD2FF11DE35AFF4FF0829FB73B
:1005C000F8940B8FEA89FB8980818062CFCFCF932B
:1005D000DF93EC01888D8823B9F0AA89BB89E8896B
:1005E000F9898C9185FD03C0808186FD0DC00FB611
:1005F00007FCF7CF8C9185FFF2CF808185FFEDCF8F
:10060000CE010E947802E9CFDF91CF91089560E09A
:100610008DE00C94430160E087E00E94430160E0BC
:1006200085E00E94430160E088E00E94430160E0B1
:1006300086E00C94430160E086E00E94430161E0A3
:1006400085E00E94430161E088E00E94430160E090
:1006500087E00C94430160E088E00E94430161E080
:1006600086E00E94430161E087E00E94430160E070
:1006700085E00C94430161E088E00E94430161E061
:1006800086E00E94430160E087E00E94430160E051
:1006900085E00C944301FC0101900020E9F73197BB
:1006A000AF01481B590BBC0186E291E00C94FA01A2
:1006B0000F931F9360E08FE00E94430183E090E07E
:1006C0000197F1F761E08FE00E94430183E290E03F
:1006D0000197F1F760E08FE00E944301EAEAF0E061
:1006E0006491E6E9F0E0E491F0E0EE0FFF1FE458DA
:1006F000FF4F8591949100E412E42FE030E0462F03
:100700000E94FD04611571058105910529F06F5F57
:100710007F4F8F4F9F4F9F700E945F0826E933E401
:100720004BE05DE30E94C30820E030E040E05FE37F
:100730000E94C3080E9427081F910F9108951F92DD
:100740000F920FB60F9211242F933F938F939F9385
:10075000AF93BF9380911E0190911F01A091200142
:10076000B091210130911D0123E0230F2D3758F561
:100770000196A11DB11D20931D0180931E01909330
:100780001F01A0932001B09321018091220190913B
:100790002301A0912401B09125010196A11DB11D55
:1007A0008093220190932301A0932401B09325010B
:1007B000BF91AF919F918F913F912F910F900FBE5D
:1007C0000F901F90189526E8230F0296A11DB11DCA
:1007D000D2CF1F920F920FB60F9211242F933F93F7
:1007E0004F935F936F937F938F939F93AF93BF9339
:1007F000EF93FF9386E291E00E947802FF91EF91E0
:10080000BF91AF919F918F917F916F915F914F9128
:100810003F912F910F900FBE0F901F9018951F9230
:100820000F920FB60F9211242F938F939F93EF93F4
:10083000FF93E0913601F09137018081E0913C0116
:10084000F0913D0182FD1BC0908180913F018F5F3F
:100850008F7320914001821741F0E0913F01F0E059
:10086000EA5DFE4F958F80933F01FF91EF919F913D
:100870008F912F910F900FBE0F901F901895808130
:10088000F4CF1F920F920FB60F9211242F933F9324
:100890004F935F936F937F938F939F93AF93BF9388
:1008A000CF93DF93EF93FF9380911C01C091E701F9
:1008B000D0E087FF24C010928500109284008091C0
:1008C0001C018F5F80931C0180911C01082E000C7D
:1008D000990B8C179D0724F480911C018C30C4F176
:1008E0008091840090918500049680349C4908F49E
:1008F0007AC08091840090918500049676C08091A2
:100900001C01082E000C990B8C179D07C4F6E09172
:100910001C018E2FEE0F990BFC01EE0FFF1FE80F4D
:10092000F91FED53FE4F808186FFC9CFE0911C0176
:100930008E2FEE0F990BFC01EE0FFF1FE80FF91F32
:10094000ED53FE4F808160E08F730E944301B7CF6B
:100950002091840030918500E0911C018E2FEE0FD4
:10096000990BFC01EE0FFF1FE80FF91FED53FE4F2F
:1009700081819281820F931F9093890080938800D8
:10098000E0911C018E2FEE0F990BFC01EE0FFF1F63
:10099000E80FF91FED53FE4F808186FF11C0E091F3
:1009A0001C018E2FEE0F990BFC01EE0FFF1FE80FBD
:1009B000F91FED53FE4F808161E08F730E94430168
:1009C000FF91EF91DF91CF91BF91AF919F918F9167
:1009D0007F916F915F914F913F912F910F900FBE3B
:1009E0000F901F90189580E49CE990938900809364
:1009F00088008FEF80931C01E3CFCF92DF92EF92BC
:100A0000FF920F931F93E82FF92F05C00150110992
:100A10002109310961F1908196239417B9F305C03A
:100A2000015011092109310911F190819623941384
:100A3000F7CFC12CD12CE12CF12C0AC08FEFC81AB2
:100A4000D80AE80AF80A0C151D052E053F0579F0AD
:100A500080818623841791F36C2D7D2D8E2D9F2D03
:100A60001F910F91FF90EF90DF90CF90089560E07D
:100A700070E080E090E01F910F91FF90EF90DF9089
:100A8000CF900895109229011092280188EE93E0EA
:100A9000A0E0B0E080932A0190932B01A0932C0159
:100AA000B0932D0184E091E090932701809326017B
:100AB00085EC90E0909333018093320184EC90E0D8
:100AC000909335018093340180EC90E0909337014E
:100AD0008093360181EC90E0909339018093380146
:100AE00082EC90E090933B0180933A0186EC90E099
:100AF00090933D0180933C0110923F011092400180
:100B000010924101109242018091E7018C3098F4DB
:100B100091E0980F9093E7018093E80190E0FC0149
:100B2000EE0FFF1FE80FF91FED53FE4F88EB9BE020
:100B30009283818308958FEF8093E8010895CF9386
:100B4000DF93CDB7DEB7A1970FB6F894DEBF0FBE27
:100B5000CDBF789484B5826084BD84B5816084BD46
:100B600085B5826085BD85B5816085BD80916E004B
:100B7000816080936E00109281008091810082607C
:100B800080938100809181008160809381008091B9
:100B900080008160809380008091B10084608093A8
:100BA000B1008091B00081608093B00080917A00A4
:100BB000846080937A0080917A00826080937A00CA
:100BC00080917A00816080937A0080917A008068B9
:100BD00080937A001092C10060E082E00E9471016F
:100BE00060E083E00E94710160E084E00E94710196
:100BF00060E082E10E94710161E08FE00E9471017A
:100C000060E080E10E94710161E088E00E94710172
:100C100061E087E00E94710161E086E00E9471015D
:100C200061E085E00E94710161E08DE00E94710148
:100C30008091E8018C3008F051C061E089E00E94A9
:100C400071018091E801282F30E0F901EE0FFF1FBC
:100C5000E20FF31FED53FE4F9081907C99609083DB
:100C60001092E9011092EA012CE0622F0E945809CB
:100C7000829FB001112430E020E0AB01420F531FEE
:100C8000FA01EE0FFF1FE40FF51FED53FE4F9081A9
:100C900096FD16C02F5F3F4F2C30310571F7811143
:100CA0000FC01092800082E0809381001092850036
:100CB00010928400B19A80916F00826080936F00DF
:100CC000E091E8018E2F90E0FC01EE0FFF1FE80F8E
:100CD000F91FED53FE4F808180648083E0913601DF
:100CE000F091370182E08083E0913201F09133018D
:100CF0001082E0913401F09135018FEC80831092E5
:100D00003E01E0913A01F0913B0186E08083E09161
:100D10003801F0913901808180618083E091380150
:100D2000F0913901808188608083E0913801F091F1
:100D30003901808180688083E0913801F091390128
:100D400080818F7D808389EB882E912CA12CB12C02
:100D500082E00E941A012C0184E00E941A018C0199
:100D600083E00E941A013C0184E480937C0080911E
:100D70007A00806480937A0080917A0086FDFCCFAF
:100D800020907800309079002FEF30E0D1010E9460
:100D900064092FEF33E040E050E00E94C40769018E
:100DA0007A0182E191E00E944B03F7FE92C06DE26E
:100DB00086E291E00E949A0222273327A9012C198A
:100DC0003D094E095F0919A2FE01B1967F01CA01D2
:100DD000B9012AE030E040E050E00E94F607605D93
:100DE000F70162937F01211531054105510579F71E
:100DF000E114F10419F0C7010E944B0389E191E06D
:100E00000E944B030E9458036B017C014114510462
:100E100009F087C00115110509F0B0C06114710413
:100E200009F0A6C00E9407030E943B03FFE0CF1613
:100E3000D104E104F1040CF071C08CE2281681E0C9
:100E400038060CF06BC00E940B036AEF70E080E084
:100E500090E00E94C7018DE290E00E948C000E9409
:100E600058032B013C0187E890E00E948C000E940F
:100E700058036B017C018AE590E00E948C00C41449
:100E8000D504E604F704ECF50E941B03A3019201CC
:100E90002F50310941095109A4EAB6E00E94E30745
:100EA000A50194010E94C407CA01B901645D7E4F87
:100EB0008F4F9F4F0E94C701E0E0F0E0EF2B09F455
:100EC00047CF0E946402882309F442CF0E940000A9
:100ED0003FCFA701960119A2CE0181967C01CA01DC
:100EE000B9012AE030E040E050E00E94F607605D82
:100EF000F70162937F01211531054105510579F70D
:100F000077CF4C145D046E047F042CF40E942B03F5
:100F1000A7019601BDCF0E940B03CECF0E943B03D9
:100F2000CBCF4A94452821F501301105E1F46A94AC
:100F3000672809F5FFE0CF16D104E104F10474F449
:100F40000E940B030E9407038DE2281681E03806F9
:100F50003CF061E08DE00E944301AECF0E943B0374
:100F60000E940703A9CF012B19F40E942B03F8CF8D
:100F70006A94672899F30E940B03F2CF01301105A0
:100F8000B9F70E941B03ECCF052E97FB1EF40094CB
:100F90000E94DB0757FD07D00E94F60707FC03D02D
:100FA0004EF40C94DB0750954095309521953F4FBA
:100FB0004F4F5F4F089590958095709561957F4F45
:100FC0008F4F9F4F08950E941808A59F900DB49FC2
:100FD000900DA49F800D911D11240895B7FF0C94CE
:100FE000E3070E94E307821B930B0895A1E21A2EE8
:100FF000AA1BBB1BFD010DC0AA1FBB1FEE1FFF1FBD
:10100000A217B307E407F50720F0A21BB30BE40B0C
:10101000F50B661F771F881F991F1A9469F7609553
:101020007095809590959B01AC01BD01CF0108950D
:10103000A29FB001B39FC001A39F700D811D112419
:10104000911DB29F700D811D1124911D08950E9464
:101050002E086894B1110C94BD0808950E94A2084E
:1010600088F09F5798F0B92F9927B751B0F0E1F069
:10107000660F771F881F991F1AF0BA95C9F714C019
:10108000B13091F00E94BC08B1E008950C94BC0806
:10109000672F782F8827B85F39F0B93FCCF3869552
:1010A00077956795B395D9F73EF4909580957095AF
:1010B00061957F4F8F4F9F4F0895E89409C097FB2C
:1010C0003EF490958095709561957F4F8F4F9F4F1F
:1010D0009923A9F0F92F96E9BB279395F695879563
:1010E00077956795B795F111F8CFFAF4BB0F11F426
:1010F00060FF1BC06F5F7F4F8F4F9F4F16C08823CD
:1011000011F096E911C0772321F09EE8872F762F02
:1011100005C0662371F096E8862F70E060E02AF043
:101120009A95660F771F881FDAF7880F969587952F
:1011300097F9089557FD9058440F551F59F05F3F98
:1011400071F04795880F97FB991F61F09F3F79F0E9
:1011500087950895121613061406551FF2CF46956B
:10116000F1DF08C0161617061806991FF1CF8695ED
:101170007105610508940895E894BB2766277727D1
:10118000CB0197F908950E94D6080C9447090E9454
:10119000390938F00E94400920F0952311F00C9491
:1011A00030090C94360911240C94BD080E949A0849
:1011B00070F3959FC1F3950F50E0551F629FF001AA
:1011C000729FBB27F00DB11D639FAA27F00DB11DC3
:1011D000AA1F649F6627B00DA11D661F829F22274C
:1011E000B00DA11D621F739FB00DA11D621F839FD3
:1011F000A00D611D221F749F3327A00D611D231FA9
:10120000849F600D211D822F762F6A2F11249F57F6
:1012100050409AF0F1F088234AF0EE0FFF1FBB1FF9
:10122000661F771F881F91505040A9F79E3F5105B8
:1012300080F00C9430090C94BD085F3FE4F3983EB5
:10124000D4F3869577956795B795F795E7959F5F62
:10125000C1F7FE2B880F911D9695879597F90895F4
:1012600097F99F6780E870E060E008959FEF80EC59
:10127000089500240A9416161706180609060895FC
:1012800000240A9412161306140605060895092E62
:101290000394000C11F4882352F0BB0F40F4BF2BD1
:1012A00011F460FF04C06F5F7F4F8F4F9F4F089511
:1012B000991B79E004C0991F961708F0961B881FA8
:1012C0007A95C9F7809508950E941808B7FF089588
:1012D000821B930B0895EE0FFF1F0590F491E02DF4
:1012E0000994F894FFCF000000009A02FA01270247
:1012F000E702580236024A02676173203A20000D65
:021300000A00E1
:107E0000112484B714BE81FFF0D085E080938100F7
:107E100082E08093C00088E18093C10086E0809377
:107E2000C20080E18093C4008EE0C9D0259A86E02C
:107E300020E33CEF91E0309385002093840096BBD3
:107E4000B09BFECF1D9AA8958150A9F7CC24DD24C4
:107E500088248394B5E0AB2EA1E19A2EF3E0BF2EE7
:107E6000A2D0813461F49FD0082FAFD0023811F036
:107E7000013811F484E001C083E08DD089C08234E0
:107E800011F484E103C0853419F485E0A6D080C0E4
:107E9000853579F488D0E82EFF2485D0082F10E0AE
:107EA000102F00270E291F29000F111F8ED06801E7
:107EB0006FC0863521F484E090D080E0DECF843638
:107EC00009F040C070D06FD0082F6DD080E0C81688
:107ED00080E7D80618F4F601B7BEE895C0E0D1E017
:107EE00062D089930C17E1F7F0E0CF16F0E7DF06D8
:107EF00018F0F601B7BEE89568D007B600FCFDCFD4
:107F0000A601A0E0B1E02C9130E011968C91119780
:107F100090E0982F8827822B932B1296FA010C0160
:107F200087BEE89511244E5F5F4FF1E0A038BF0790
:107F300051F7F601A7BEE89507B600FCFDCF97BE46
:107F4000E89526C08437B1F42ED02DD0F82E2BD052
:107F50003CD0F601EF2C8F010F5F1F4F84911BD097
:107F6000EA94F801C1F70894C11CD11CFA94CF0C13
:107F7000D11C0EC0853739F428D08EE10CD085E9AC
:107F80000AD08FE07ACF813511F488E018D01DD067
:107F900080E101D065CF982F8091C00085FFFCCF94
:107FA0009093C60008958091C00087FFFCCF809118
:107FB000C00084FD01C0A8958091C6000895E0E648
:107FC000F0E098E1908380830895EDDF803219F02E
:107FD00088E0F5DFFFCF84E1DECF1F93182FE3DFCA
:107FE0001150E9F7F2DF1F91089580E0E8DFEE27F6
:047FF000FF270994CA
:027FFE00040479
:00000001FF
